S010000050726F626C656D322E7372656311
S113000071C000008EC000008CC000008AC00000D7
S113001088C0000086C0000084C0000082C00000C8
S113002080C000007EC000007CC000007AC00000D8
S113003078C0000076C0000074C0000072C00000E8
S113004070C000006EC000006CC000006AC00000F8
S113005068C0000066C0000064C0000062C0000008
S113006060C00000B5C200003BC100005AC00000DF
S113007058C0000056C0000054C0000052C0000028
S113008050C000004EC000004CC000004AC0000038
S1130090CAC2000071C1000044C0000042C0000098
S11300A040C000003EC000003CC000003AC0000058
S11300B038C0000036C0000034C0000032C0000068
S11300C030C000002EC000002CC00000D7C20000C9
S11300D09FC1000026C00000FCC20000E5C1000072
S11300E020C0000011241FBECFEFD1E2DEBFCDBF80
S11300F000E00CBF12E0A0E0B2E0E8EDFBE000E0BD
S11301000BBF02C007900D92A836B107D9F724E0BF
S1130110A8E6B2E001C01D92AA30B207E1F741D0CF
S113012059C56ECF903069F4813041F110F08A9551
S113013020C09F6F8E6F23D00000000000000000DD
S113014018C0813058F119F000008A9514C08F6FDF
S11301509A95000014D0000000000BC0913070F09C
S11301609A958F6F06C00000000000000000000098
S11301700000000000000000000003C0089500001B
S113018008958A95803079F700009130B8F39A95F4
S11301908F6FF5DF000000000000E8CF9A958F6FA5
S11301A0EACF269A46E050E060E875E280E090E00D
S11301B0CDD485E50BD0E5D42FEF83ED90E321502A
S11301C080409040E1F700C00000F3CF0F931F93ED
S11301D0CF93DF93082F88E690E090936902809391
S11301E0680215B880916802909169029BDFC0E0B3
S11301F0D0E010E098010C2E02C0359527950A94A2
S1130200E2F7217033270024369527950794369515
S113021027950794322F202D25B98091680290915B
S1130220690280DF2196C830D10521F780E485B9C1
S1130230809168029091690275DFDF91CF911F91DF
S11302400F910895CF93DF93EB0190E0FC01EE0F43
S1130250FF1FEE0FFF1FEE0FFF1FE659FD4F238117
S113026021FD3AC07FB7F894FC01EE0FFF1FEE0F9B
S1130270FF1FEE0FFF1FE659FD4F2181A681B781B5
S1130280A20FB11D3C9138832F5F32812323218338
S1130290448155814150510955834483308123134E
S11302A00CC0FC01EE0FFF1FEE0FFF1FEE0FFF1F30
S11302B0E659FD4F238122602383880F991F880FFD
S11302C0991F880F991FFC01E659FD4F83818E7F8A
S11302D083837FBF81E001C080E0DF91CF910895E7
S11302E01F920F920FB60F9211240BB60F922F93F9
S11302F03F934F935F936F937F938F939F93AF93AA
S1130300BF93EF93FF93CF93DF931F92CDB7DEB7E5
S113031080910102E82FF0E0EE0FFF1FEE0FFF1FA8
S1130320EE0FFF1FE659FD4F938191FF08C0E09146
S11303302802F091290281818F7D818307C0BE014B
S11303406F5F7F4F7FDF89818093C6000F90DF91BD
S1130350CF91FF91EF91BF91AF919F918F917F9139
S11303606F915F914F913F912F910F900BBE0F9022
S11303700FBE0F901F9018951F920F920FB60F92F9
S113038011240BB60F922F933F934F935F936F9368
S11303907F938F939F93AF93BF93EF93FF93CF93E9
S11303A0DF931F92CDB7DEB780910B02E82FF0E008
S11303B0EE0FFF1FEE0FFF1FEE0FFF1FE659FD4F5D
S11303C0938191FF08C0E0912A02F0912B02818170
S11303D08F7D818307C0BE016F5F7F4F33DF8981CB
S11303E08093CE000F90DF91CF91FF91EF91BF9159
S11303F0AF919F918F917F916F915F914F913F91B9
S11304002F910F900BBE0F900FBE0F901F90189559
S11304101F920F920FB60F9211240BB60F922F93C7
S11304203F934F935F936F937F938F939F93AF9378
S1130430BF93EF93FF93CF93DF931F92CDB7DEB7B4
S113044080911502E82FF0E0EE0FFF1FEE0FFF1F63
S1130450EE0FFF1FE659FD4F938191FF08C0E09115
S11304602C02F0912D0281818F7D818307C0BE0112
S11304706F5F7F4FE7DE89818093D6000F90DF9115
S1130480CF91FF91EF91BF91AF919F918F917F9108
S11304906F915F914F913F912F910F900BBE0F90F1
S11304A00FBE0F901F9018951F920F920FB60F92C8
S11304B011240BB60F922F933F934F935F936F9337
S11304C07F938F939F93AF93BF93EF93FF93CF93B8
S11304D0DF931F92CDB7DEB780911F02E82FF0E0C3
S11304E0EE0FFF1FEE0FFF1FEE0FFF1FE659FD4F2C
S11304F0938191FF08C0E0912E02F0912F02818137
S11305008F7D818307C0BE016F5F7F4F9BDE898132
S1130510809336010F90DF91CF91FF91EF91BF91BE
S1130520AF919F918F917F916F915F914F913F9187
S11305302F910F900BBE0F900FBE0F901F90189528
S113054090E0FC01EE0FFF1FEE0FFF1FEE0FFF1FE9
S1130550E659FD4F238120FD39C07FB7F894FC0193
S1130560EE0FFF1FEE0FFF1FEE0FFF1FE659FD4FAB
S11305702081A681B781A20FB11D6C932F5F3281B8
S113058023232083448155814F5F5F4F55834483E8
S1130590318123130CC0FC01EE0FFF1FEE0FFF1F70
S11305A0EE0FFF1FE659FD4F238121602383880F3F
S11305B0991F880F991F880F991FFC01E659FD4F59
S11305C083818D7F83837FBF81E0089580E00895D8
S11305D01F920F920FB60F9211240BB60F922F9306
S11305E03F934F935F936F937F938F939F93AF93B7
S11305F0BF93EF93FF936091C60080910002A0DF48
S1130600FF91EF91BF91AF919F918F917F916F91E6
S11306105F914F913F912F910F900BBE0F900FBEA2
S11306200F901F9018951F920F920FB60F921124DE
S11306300BB60F922F933F934F935F936F937F93D8
S11306408F939F93AF93BF93EF93FF936091CE00EB
S113065080910A0275DFFF91EF91BF91AF919F9155
S11306608F917F916F915F914F913F912F910F9057
S11306700BBE0F900FBE0F901F9018951F920F92F4
S11306800FB60F9211240BB60F922F933F934F93F3
S11306905F936F937F938F939F93AF93BF93EF93E6
S11306A0FF936091D600809114024ADFFF91EF918D
S11306B0BF91AF919F918F917F916F915F914F9176
S11306C03F912F910F900BBE0F900FBE0F901F9074
S11306D018951F920F920FB60F9211240BB60F921A
S11306E02F933F934F935F936F937F938F939F9336
S11306F0AF93BF93EF93FF936091360180911E02F5
S11307001FDFFF91EF91BF91AF919F918F917F91E7
S11307106F915F914F913F912F910F900BBE0F906E
S11307200FBE0F901F901895E0ECF0E0908195FFBC
S1130730FDCF8093C6000895CF93DF93EC018881A9
S1130740882329F02196F0DF89918111FCCFDF9174
S1130750CF9108951092C1002FEF39EF50E021504E
S113076030405040E1F700C000002091C6006038DE
S113077020E772078105910509F48FC024F56038DC
S113078055E275078105910509F463C074F4603678
S113079039E073078105910509F443C0603C724157
S11307A08105910509F449C0CBC0603428E3720780
S11307B08105910509F459C061157B4481059105B2
S11307C009F45FC0BDC0611552EC750751E085079F
S11307D0910509F486C074F4611536E9730781053F
S11307E0910509F466C06115714E8105910509F4FE
S11307F06CC0A6C0603221EA720727E08207910527
S113080009F487C0603432E473073FE0830791053D
S113081009F48BC06039704D8340910509F090C094
S11308206CC080E493E09093C5008093C400E0EC36
S1130830F0E080818260808383C080EA91E09093BD
S1130840C5008093C400E0ECF0E080818260808386
S113085077C087E690E09093C5008093C400E0ECF5
S1130860F0E080818D7F80836BC08AE890E0909374
S1130870C5008093C400E0ECF0E080818260808356
S11308805FC083E390E09093C5008093C400E0ECE4
S1130890F0E080818D7F808353C084E490E0909366
S11308A0C5008093C400E0ECF0E080818260808326
S11308B047C089E190E09093C5008093C400E0ECC8
S11308C0F0E080818D7F80833BC082E290E0909352
S11308D0C5008093C400E0ECF0E0808182608083F6
S11308E02FC080E190E09093C5008093C400E0ECB9
S11308F0F0E080818260808323C087E090E0909361
S1130900C5008093C400E0ECF0E0808182608083C5
S113091017C083E090E09093C5008093C400E0EC9E
S1130920F0E08081826080830BC081E090E090934E
S1130930C5008093C400E0ECF0E080818260808395
S11309404093C200E1ECF0E08081886180830895E7
S11309501092C9002FEF39EF50E021503040504041
S1130960E1F700C000002091CE00603820E7720754
S11309708105910509F48FC024F5603855E27507A7
S11309808105910509F463C074F4603639E0730796
S11309908105910509F443C0603C724181059105CC
S11309A009F449C0CBC0603428E37207810591057E
S11309B009F459C061157B448105910509F45FC0B0
S11309C0BDC0611552EC750751E08507910509F426
S11309D086C074F4611536E973078105910509F43D
S11309E066C06115714E8105910509F46CC0A6C0FD
S11309F0603221EA720727E08207910509F487C073
S1130A00603432E473073FE08307910509F48BC037
S1130A106039704D8340910509F090C06CC080E44A
S1130A2093E09093CD008093CC00E8ECF0E08081DB
S1130A308260808383C080EA91E09093CD008093AC
S1130A40CC00E8ECF0E080818260808377C087E6A8
S1130A5090E09093CD008093CC00E8ECF0E08081AE
S1130A608D7F80836BC08AE890E09093CD00809363
S1130A70CC00E8ECF0E08081826080835FC083E397
S1130A8090E09093CD008093CC00E8ECF0E080817E
S1130A908D7F808353C084E490E09093CD00809355
S1130AA0CC00E8ECF0E080818260808347C089E17B
S1130AB090E09093CD008093CC00E8ECF0E080814E
S1130AC08D7F80833BC082E290E09093CD00809341
S1130AD0CC00E8ECF0E08081826080832FC080E16C
S1130AE090E09093CD008093CC00E8ECF0E080811E
S1130AF08260808323C087E090E09093CD00809350
S1130B00CC00E8ECF0E080818260808317C083E051
S1130B1090E09093CD008093CC00E8ECF0E08081ED
S1130B20826080830BC081E090E09093CD0080933D
S1130B30CC00E8ECF0E08081826080834093CA00BE
S1130B40E9ECF0E08081886180830895CF92DF92A0
S1130B50EF92FF92CF93DF936B017C01EA0146E0B1
S1130B6050E060E072EC81E090E0F4DDAE01C7019A
S1130B70B601EEDEDF91CF91FF90EF90DF90CF9042
S1130B800895CF93DF93E8ECF0E080818823ECF7BD
S1130B90C091C800D091CE0080E392E0CDDD8D2FCE
S1130BA0C3DD8AE0C1DD8C2F8C7189F0C4FF03C0E2
S1130BB089E392E0C1DDC3FF03C089E492E0BCDDB8
S1130BC0C2FF03C089E592E0B7DD8AE0ADDDDF91C5
S10B0BD0CF910895F894FFCFC2
S1130BD80000CA0340008A03400000004A034000A2
S1130BE80A0340000000EA022000CA0220000000B4
S1130BF8AA0220008A022000C000C800D0003001E8
S1130C0864617461203D2000206672616D696E67BD
S1130C18206572726F722000206F76657272756E2D
S1130C28206572726F722000207061726974792075
S10B0C386572726F7220000066
S9030000FC
