:100000009DC00000BBC00000B9C00000B7C0000028
:10001000B5C00000B3C00000B1C00000AFC0000018
:10002000ADC00000ABC00000A9C00000A7C0000028
:10003000A5C00000A3C00000A1C000009FC0000038
:100040009DC000009BC0000099C0000097C0000048
:1000500095C0000093C0000091C000008FC0000058
:100060008DC0000014C7000067C5000087C00000F5
:1000700085C0000083C0000081C000007FC0000078
:100080007DC000007BC0000079C0000077C0000088
:1000900029C700009DC5000071C000006FC00000AE
:1000A0006DC000006BC0000069C0000067C00000A8
:1000B00065C0000063C0000061C000005FC00000B8
:1000C0005DC000005BC0000059C0000036C70000E2
:1000D000CBC5000053C000005BC7000011C6000084
:1000E0004DC00000310133013501400140014001A4
:1000F00040014001400140014001400140014001F8
:1001000040014001400140014001400140014001E7
:1001100040014001400140014001400140014001D7
:1001200040014001400140014001400140014001C7
:10013000400140012F012D012B01370111241FBE69
:10014000CFEFD1E2DEBFCDBF00E00CBF12E0A0E0F8
:10015000B2E0E2E9F2E100E00BBF02C007900D92CD
:10016000AE33B107D9F723E0AEE3B2E001C01D9290
:10017000A23EB207E1F742D00C94470941CF90303C
:1001800069F4813041F110F08A9520C09F6F8E6F25
:1001900023D0000000000000000018C0813058F19A
:1001A00019F000008A9514C08F6F9A95000014D042
:1001B000000000000BC0913070F09A958F6F06C060
:1001C000000000000000000000000000000000002F
:1001D0000000000003C00895000008958A95803053
:1001E00079F700009130B8F39A958F6FF5DF000032
:1001F00000000000E8CF9A958F6FEACF269A06E0BC
:1002000010E020E835E240E050E06CE070E083E18F
:1002100090E048D046E050E060E875E280E090E091
:10022000E8D780E392E09AD00E9417092FEF83ED80
:1002300090E3215080409040E1F700C00000F1CFF2
:100240000A978C329105E0F4FC018827EE58FF4FA5
:100250008F4F0C943F0921E00BC022E009C023E03E
:1002600007C024E005C025E003C026E001C020E06F
:1002700081E090E002C0880F991F2A95E2F7089567
:100280008FEF9FEF089580FD09C020E030E02F5FE1
:100290003F4F9595879580FFFACF02C020E030E070
:1002A000C9010895CF93DF93EB01CA01B90112D1BF
:1002B0009B01AC0160E070E080E89FE370D020E03B
:1002C00034E244E759E492D1D2D070934102609372
:1002D0004002CE01B5DF90933F0280933E02DF9152
:1002E000CF910895FF920F931F93CF93DF93082F21
:1002F00080913E0290913F02C6DFF82E15B88091A2
:100300004002909141023BDFC0E0D0E010E0980154
:100310000C2E02C0359527950A94E2F721703327F9
:100320000F2C02C0220F331F0A94E2F725B98091E7
:1003300040029091410223DF2196C830D10539F760
:1003400080913E0285B9809140029091410217DF71
:10035000DF91CF911F910F91FF9008950F931F93FD
:10036000CF93DF93FC0101900020E9F73197E81B60
:10037000F90B1E161F0674F4EC018C010E0F1F1FE3
:100380008991B0DF8091400290914102F8DEC01760
:10039000D107B1F7DF91CF911F910F9108950CD044
:1003A000EBC0E3D040F0DAD030F021F45F3F19F039
:1003B000CCC0511115C1CFC0F0D098F39923C9F327
:1003C0005523B1F3951B550BBB27AA27621773075B
:1003D000840738F09F5F5F4F220F331F441FAA1F0F
:1003E000A9F333D00E2E3AF0E0E830D091505040CF
:1003F000E695001CCAF729D0FE2F27D0660F771F7D
:10040000881FBB1F261737074807AB07B0E809F05E
:10041000BB0B802DBF01FF2793585F4F2AF09E3FF3
:10042000510568F092C0DCC05F3FECF3983EDCF30E
:10043000869577956795B795F7959F5FC9F7880F6C
:10044000911D9695879597F90895E1E0660F771FBE
:10045000881FBB1F621773078407BA0720F0621B4F
:10046000730B840BBA0BEE1F88F7E095089504D048
:100470006894B111B5C0089598D088F09F5790F056
:10048000B92F9927B751A0F0D1F0660F771F881FB9
:10049000991F1AF0BA95C9F712C0B13081F09FD0F8
:1004A000B1E008959CC0672F782F8827B85F39F096
:1004B000B93FCCF3869577956795B395D9F73EF418
:1004C00090958095709561957F4F8F4F9F4F0895C0
:1004D000E89409C097FB3EF49095809570956195DE
:1004E0007F4F8F4F9F4F9923A9F0F92F96E9BB2794
:1004F0009395F695879577956795B795F111F8CF10
:10050000FAF4BB0F11F460FF1BC06F5F7F4F8F4F7A
:100510009F4F16C0882311F096E911C0772321F070
:100520009EE8872F762F05C0662371F096E8862F08
:1005300070E060E02AF09A95660F771F881FDAF75F
:10054000880F9695879597F9089597F99F6780E8A2
:1005500070E060E008959FEF80EC089500240A9415
:100560001616170618060906089500240A9412168E
:100570001306140605060895092E0394000C11F4C1
:10058000882352F0BB0F40F4BF2B11F460FF04C06E
:100590006F5F7F4F8F4F9F4F089557FD9058440FC7
:1005A000551F59F05F3F71F04795880F97FB991FD2
:1005B00061F09F3F79F0879508951216130614068F
:1005C000551FF2CF4695F1DF08C01616170618061C
:1005D000991FF1CF86957105610508940895E894F7
:1005E000BB2766277727CB0197F908950BD0C4CF97
:1005F000B5DF28F0BADF18F0952309F0A6CFABCF0E
:100600001124EECFCADFA0F3959FD1F3950F50E0F0
:10061000551F629FF001729FBB27F00DB11D639FB4
:10062000AA27F00DB11DAA1F649F6627B00DA11D5A
:10063000661F829F2227B00DA11D621F739FB00D00
:10064000A11D621F839FA00D611D221F749F332770
:10065000A00D611D231F849F600D211D822F762F09
:100660006A2F11249F5750408AF0E1F088234AF006
:10067000EE0FFF1FBB1F661F771F881F9150504052
:10068000A9F79E3F510570F060CFAACF5F3FECF312
:10069000983EDCF3869577956795B795F795E7953E
:1006A0009F5FC1F7FE2B880F911D9695879597F94F
:1006B0000895FC01EE0FFF1FE85DFD4FA081B181A1
:1006C00011961C923FEFA0E7B2E03150A040B0403D
:1006D000E1F700C000000190F081E02D3681403844
:1006E00030E753076105710509F4A3C024F54038CC
:1006F000B5E25B076105710509F46BC074F440361F
:10070000A9E05A076105710509F443C0403C524114
:100710006105710509F44DC0FBC0403438E353074F
:100720006105710509F465C041155B4461057105FA
:1007300009F46FC0EDC04115B2EC5B07B1E06B0787
:10074000710509F4A6C074F44115A6E95A076105BC
:10075000710509F47EC04115514E6105710509F41A
:1007600088C0D6C0403231EA530737E063077105CD
:1007700009F4AFC04034A2E45A07AFE06A0771053C
:1007800009F4B7C04039504D6340710509F0C0C04D
:1007900090C040E453E055834483FC01EE0FFF1FFB
:1007A000E85DFD4F0190F081E02D308132603083B3
:1007B000AFC040EA51E055834483FC01EE0FFF1FB8
:1007C000E85DFD4F0190F081E02D30813260308393
:1007D0009FC047E650E055834483FC01EE0FFF1FA6
:1007E000E85DFD4F0190F081E02D30813D7F308349
:1007F0008FC04AE850E055834483FC01EE0FFF1F91
:10080000E85DFD4F0190F081E02D30813260308352
:100810007FC043E350E055834483FC01EE0FFF1F8C
:10082000E85DFD4F0190F081E02D30813D7F308308
:100830006FC044E450E055834483FC01EE0FFF1F7A
:10084000E85DFD4F0190F081E02D30813260308312
:100850005FC049E150E055834483FC01EE0FFF1F68
:10086000E85DFD4F0190F081E02D30813D7F3083C8
:100870004FC042E250E055834483FC01EE0FFF1F5E
:10088000E85DFD4F0190F081E02D308132603083D2
:100890003FC040E150E055834483FC01EE0FFF1F51
:1008A000E85DFD4F0190F081E02D308132603083B2
:1008B0002FC047E050E055834483FC01EE0FFF1F3B
:1008C000E85DFD4F0190F081E02D30813260308392
:1008D0001FC043E050E055834483FC01EE0FFF1F2F
:1008E000E85DFD4F0190F081E02D30813260308372
:1008F0000FC041E050E055834483FC01EE0FFF1F21
:10090000E85DFD4F0190F081E02D30813260308351
:10091000880F991FFC01E85DFD4FA081B1811296FF
:100920002C930190F081E02D818188698183089565
:1009300028E0829FC0011124FC01EE5BFD4F17826D
:1009400016821082118283818E7F8260838315825A
:10095000148212820895EF92FF920F931F93CF9308
:10096000DF932091480230914902232B09F43FC0C4
:100970002091500230915102232B79F0209158029E
:1009800030915902232B61F0209160023091610275
:10099000232B39F5C3E0D0E02CC0C1E0D0E029C062
:1009A000C2E0D0E026C08130910539F09C01215091
:1009B000310928233923232BB1F48B017C018C2F9F
:1009C000B7DFFE01EE0FFF1FEE0FFF1FEE0FFF1F41
:1009D000EE5BFD4F178306838FEF8E0D82838C2F86
:1009E0000CC08FEF0AC08FEF08C08FEF06C0C0E0C9
:1009F000D0E061157105B9F6F8CFDF91CF911F9165
:100A00000F91FF90EF9008958F929F92AF92BF92B7
:100A1000CF92DF92EF92FF920F931F93CF93DF93CA
:100A20008C014A015B016901EC01CC0FDD1F880FCD
:100A3000991F880F991F880F991FC80FD91FC05081
:100A4000DE4F6A817B818C819D8185DFF82E6E81EE
:100A50007F81888599857FDFE82EF88289839601DA
:100A6000B501A401C80125DEFF2034F0EE203CF0E2
:100A7000789480E090E005C08FEF9FEF02C08FEF89
:100A80009FEFDF91CF911F910F91FF90EF90DF903B
:100A9000CF90BF90AF909F908F900895CF93DF93AA
:100AA000EB0190E0FC01EE0FFF1FEE0FFF1FEE0FBA
:100AB000FF1FEE5BFD4F238121FD3AC07FB7F89405
:100AC000FC01EE0FFF1FEE0FFF1FEE0FFF1FEE5B8F
:100AD000FD4F2181A681B781A20FB11D3C913883C2
:100AE0002F5F328123232183448155814150510955
:100AF00055834483308123130CC0FC01EE0FFF1F8C
:100B0000EE0FFF1FEE0FFF1FEE5BFD4F23812260F4
:100B10002383880F991F880F991F880F991FFC0145
:100B2000EE5BFD4F83818E7F83837FBF81E001C0B9
:100B300080E0DF91CF9108951F920F920FB60F9230
:100B400011240BB60F922F933F934F935F936F93A4
:100B50007F938F939F93AF93BF93EF93FF93CF9325
:100B6000DF931F92CDB7DEB780910102E82FF0E04E
:100B7000EE0FFF1FEE0FFF1FEE0FFF1FEE5BFD4F8F
:100B8000938191FF08C0E0912802F09129028181B0
:100B90008F7D818307C0BE016F5F7F4F7FDF8981BB
:100BA0008093C6000F90DF91CF91FF91EF91BF919D
:100BB000AF919F918F917F916F915F914F913F91F5
:100BC0002F910F900BBE0F900FBE0F901F90189596
:100BD0001F920F920FB60F9211240BB60F922F9304
:100BE0003F934F935F936F937F938F939F93AF93B5
:100BF000BF93EF93FF93CF93DF931F92CDB7DEB7F1
:100C000080910B02E82FF0E0EE0FFF1FEE0FFF1FA9
:100C1000EE0FFF1FEE5BFD4F938191FF08C0E09147
:100C20002A02F0912B0281818F7D818307C0BE0152
:100C30006F5F7F4F33DF89818093CE000F90DF910C
:100C4000CF91FF91EF91BF91AF919F918F917F9144
:100C50006F915F914F913F912F910F900BBE0F902D
:100C60000FBE0F901F9018951F920F920FB60F9204
:100C700011240BB60F922F933F934F935F936F9373
:100C80007F938F939F93AF93BF93EF93FF93CF93F4
:100C9000DF931F92CDB7DEB780911502E82FF0E009
:100CA000EE0FFF1FEE0FFF1FEE0FFF1FEE5BFD4F5E
:100CB000938191FF08C0E0912C02F0912D02818177
:100CC0008F7D818307C0BE016F5F7F4FE7DE898123
:100CD0008093D6000F90DF91CF91FF91EF91BF915C
:100CE000AF919F918F917F916F915F914F913F91C4
:100CF0002F910F900BBE0F900FBE0F901F90189565
:100D00001F920F920FB60F9211240BB60F922F93D2
:100D10003F934F935F936F937F938F939F93AF9383
:100D2000BF93EF93FF93CF93DF931F92CDB7DEB7BF
:100D300080911F02E82FF0E0EE0FFF1FEE0FFF1F64
:100D4000EE0FFF1FEE5BFD4F938191FF08C0E09116
:100D50002E02F0912F0281818F7D818307C0BE0119
:100D60006F5F7F4F9BDE8981809336010F90DF910B
:100D7000CF91FF91EF91BF91AF919F918F917F9113
:100D80006F915F914F913F912F910F900BBE0F90FC
:100D90000FBE0F901F901895CF93DF931F921F9255
:100DA000CDB7DEB7FC01EE0FFF1F880F991F880F2C
:100DB000991F880F991FE80FF91FE050FE4F80819F
:100DC000E82FF0E0EE0FFF1FEE0FFF1FEE0FFF1FEB
:100DD000EE5BFD4F24813581121613064CF41A8206
:100DE0001982BE016F5F7F4F59DE89819A8102C0EF
:100DF0008FEF9FEF0F900F90DF91CF91089590E0CC
:100E0000FC01EE0FFF1FEE0FFF1FEE0FFF1FEE5B4B
:100E1000FD4F238120FD39C07FB7F894FC01EE0F10
:100E2000FF1FEE0FFF1FEE0FFF1FEE5BFD4F208138
:100E3000A681B781A20FB11D6C932F5F328123234E
:100E40002083448155814F5F5F4F558344833181B7
:100E500023130CC0FC01EE0FFF1FEE0FFF1FEE0F60
:100E6000FF1FEE5BFD4F238121602383880F991FB5
:100E7000880F991F880F991FFC01EE5BFD4F83813E
:100E80008D7F83837FBF81E0089580E008951F9266
:100E90000F920FB60F9211240BB60F922F933F9320
:100EA0004F935F936F937F938F939F93AF93BF9372
:100EB000EF93FF936091C60080910002A0DFFF9145
:100EC000EF91BF91AF919F918F917F916F915F91C2
:100ED0004F913F912F910F900BBE0F900FBE0F902F
:100EE0001F9018951F920F920FB60F9211240BB6F8
:100EF0000F922F933F934F935F936F937F938F93B3
:100F00009F93AF93BF93EF93FF936091CE00809137
:100F10000A0275DFFF91EF91BF91AF919F918F9181
:100F20007F916F915F914F913F912F910F900BBEE9
:100F30000F900FBE0F901F9018951F920F920FB633
:100F40000F9211240BB60F922F933F934F935F9301
:100F50006F937F938F939F93AF93BF93EF93FF9381
:100F60006091D600809114024ADFFF91EF91BF910A
:100F7000AF919F918F917F916F915F914F913F9131
:100F80002F910F900BBE0F900FBE0F901F901895D2
:100F90001F920F920FB60F9211240BB60F922F9340
:100FA0003F934F935F936F937F938F939F93AF93F1
:100FB000BF93EF93FF936091360180911E021FDF74
:100FC000FF91EF91BF91AF919F918F917F916F9121
:100FD0005F914F913F912F910F900BBE0F900FBEDD
:100FE0000F901F901895E0ECF0E0908195FFFDCFF9
:100FF0008093C60008951092C1002FEF39EF50E0A2
:10100000215030405040E1F700C000002091C60060
:10101000603820E772078105910509F48FC024F537
:10102000603855E275078105910509F463C074F4D1
:10103000603639E073078105910509F443C0603CCF
:1010400072418105910509F449C0CBC0603428E3A1
:1010500072078105910509F459C061157B4481052A
:10106000910509F45FC0BDC0611552EC750751E0F0
:101070008507910509F486C074F4611536E9730794
:101080008105910509F466C06115714E81059105D0
:1010900009F46CC0A6C0603221EA720727E082071B
:1010A000910509F487C0603432E473073FE0830799
:1010B000910509F48BC06039704D8340910509F0AA
:1010C00090C06CC080E493E09093C5008093C4000E
:1010D000E0ECF0E080818260808383C080EA91E070
:1010E0009093C5008093C400E0ECF0E080818260C2
:1010F000808377C087E690E09093C5008093C4001A
:10110000E0ECF0E080818D7F80836BC08AE890E026
:101110009093C5008093C400E0ECF0E08081826091
:1011200080835FC083E390E09093C5008093C40008
:10113000E0ECF0E080818D7F808353C084E490E018
:101140009093C5008093C400E0ECF0E08081826061
:10115000808347C089E190E09093C5008093C400EC
:10116000E0ECF0E080818D7F80833BC082E290E004
:101170009093C5008093C400E0ECF0E08081826031
:1011800080832FC080E190E09093C5008093C400DD
:10119000E0ECF0E080818260808323C087E090E013
:1011A0009093C5008093C400E0ECF0E08081826001
:1011B000808317C083E090E09093C5008093C400C3
:1011C000E0ECF0E08081826080830BC081E090E001
:1011D0009093C5008093C400E0ECF0E080818260D1
:1011E00080834093C200E1ECF0E0808188618083DD
:1011F0000895CF92DF92EF92FF92CF93DF936B012E
:101200007C01EA0146E050E060E072EC81E090E0B1
:10121000F2DE9E01B701A60181E090E0F5DB279A9E
:10122000DF91CF91FF90EF90DF90CF900895E09104
:101230000A02F0E0EE0FFF1FEE0FFF1FEE0FFF1F81
:10124000EE5BFD4F84819581892B89F485B18058AF
:1012500085B92FEF80E792E0215080409040E1F780
:1012600000C00000F3CF95B1905895B9BCDE81E085
:1012700090E092DD8F3F2FEF9207A9F70895EE0FD0
:10128000FF1F881F8BBF0790F691E02D1994F894EB
:02129000FFCF8E
:101292000000A2034000620340000000220340005D
:1012A200E20240000000C2022000A2022000000070
:1012B2008202200062022000C000C800D00030017B
:0E12C20048656C6C6F2C576F726C64210A00CB
:00000001FF
