S010000050726F626C656D322E7372656311
S113000071C000008EC000008CC000008AC00000D7
S113001088C0000086C0000084C0000082C00000C8
S113002080C000007EC000007CC000007AC00000D8
S113003078C0000076C0000074C0000072C00000E8
S113004070C000006EC000006CC000006AC00000F8
S113005068C0000066C0000064C0000062C0000008
S113006060C000005EC40000B1C200005AC00000BD
S113007058C0000056C0000054C0000052C0000028
S113008050C000004EC000004CC000004AC0000038
S113009073C40000E7C2000044C0000042C0000076
S11300A040C000003EC000003CC000003AC0000058
S11300B038C0000036C0000034C0000032C0000068
S11300C030C000002EC000002CC0000080C400001E
S11300D015C3000026C00000A5C400005BC30000D7
S11300E020C0000011241FBECFEFD1E2DEBFCDBF80
S11300F000E00CBF12E0A0E0B2E0E6E1FDE000E0C9
S11301000BBF02C007900D92A033B107D9F723E0CB
S1130110A0E3B2E001C01D92A03DB207E1F702D016
S1130120F8C56ECF40E050E060E070E0CB01ABD5A5
S1130130C8D52FEF83ED90E3215080409040E1F744
S113014000C00000F5CFFC01EE0FFF1FE85DFD4F7E
S1130150A081B18111961C923FEFA0E7B2E031502B
S1130160A040B040E1F700C000000190F081E02D14
S11301703681403830E753076105710509F4A3C09F
S113018024F54038B5E25B076105710509F46BC0DD
S113019074F44036A9E05A076105710509F443C0B7
S11301A0403C52416105710509F44DC0FBC0403427
S11301B038E353076105710509F465C041155B44D3
S11301C06105710509F46FC0EDC04115B2EC5B0720
S11301D0B1E06B07710509F4A6C074F44115A6E9F2
S11301E05A076105710509F47EC04115514E610538
S11301F0710509F488C0D6C0403231EA530737E0AC
S11302006307710509F4AFC04034A2E45A07AFE0B4
S11302106A07710509F4B7C04039504D6340710550
S113022009F0C0C090C040E453E055834483FC010E
S1130230EE0FFF1FE85DFD4F0190F081E02D30814E
S113024032603083AFC040EA51E055834483FC01FF
S1130250EE0FFF1FE85DFD4F0190F081E02D30812E
S1130260326030839FC047E650E055834483FC01ED
S1130270EE0FFF1FE85DFD4F0190F081E02D30810E
S11302803D7F30838FC04AE850E055834483FC01AE
S1130290EE0FFF1FE85DFD4F0190F081E02D3081EE
S11302A0326030837FC043E350E055834483FC01D4
S11302B0EE0FFF1FE85DFD4F0190F081E02D3081CE
S11302C03D7F30836FC044E450E055834483FC0198
S11302D0EE0FFF1FE85DFD4F0190F081E02D3081AE
S11302E0326030835FC049E150E055834483FC01B0
S11302F0EE0FFF1FE85DFD4F0190F081E02D30818E
S11303003D7F30834FC042E250E055834483FC017B
S1130310EE0FFF1FE85DFD4F0190F081E02D30816D
S1130320326030833FC040E150E055834483FC0198
S1130330EE0FFF1FE85DFD4F0190F081E02D30814D
S1130340326030832FC047E050E055834483FC0182
S1130350EE0FFF1FE85DFD4F0190F081E02D30812D
S1130360326030831FC043E050E055834483FC0176
S1130370EE0FFF1FE85DFD4F0190F081E02D30810D
S1130380326030830FC041E050E055834483FC0168
S1130390EE0FFF1FE85DFD4F0190F081E02D3081ED
S11303A032603083880F991FFC01E85DFD4FA08106
S11303B0B18112962C930190F081E02D818188699E
S11303C08183089528E0829FC0011124FC01E05D2F
S11303D0FD4F178216821082118283818E7F826084
S11303E083831582148212820895EF92FF920F93F1
S11303F01F93CF93DF932091360230913702232B42
S113040009F43FC020913E0230913F02232B79F042
S11304102091460230914702232B61F020914E0235
S113042030914F02232B39F5C3E0D0E02CC0C1E05A
S1130430D0E029C0C2E0D0E026C08130910539F077
S11304409C012150310928233923232BB1F48B013A
S11304507C018C2FB7DFFE01EE0FFF1FEE0FFF1F95
S1130460EE0FFF1FE05DFD4F178306838FEF8E0DA8
S113047082838C2F0CC08FEF0AC08FEF08C08FEFE0
S113048006C0C0E0D0E061157105B9F6F8CFDF9180
S1130490CF911F910F91FF90EF9008958F929F92AB
S11304A0AF92BF92CF92DF92EF92FF920F931F937E
S11304B0CF93DF938C014A015B016901EC01CC0FFE
S11304C0DD1F880F991F880F991F880F991FC80F68
S11304D0D91FC050DE4F6A817B818C819D8185DF6D
S11304E0F82E6E817F81888599857FDFE82EF882DA
S11304F089839601B501A401C80125DEFF2034F0EB
S1130500EE203CF0789480E090E005C08FEF9FEF00
S113051002C08FEF9FEFDF91CF911F910F91FF905A
S1130520EF90DF90CF90BF90AF909F908F90089501
S1130530CF93DF93EB0190E0FC01EE0FFF1FEE0F72
S1130540FF1FEE0FFF1FE05DFD4F238121FD3AC029
S11305507FB7F894FC01EE0FFF1FEE0FFF1FEE0FA5
S1130560FF1FE05DFD4F2181A681B781A20FB11D60
S11305703C9138832F5F3281232321834481558129
S11305804150510955834483308123130CC0FC012D
S1130590EE0FFF1FEE0FFF1FEE0FFF1FE05DFD4F7D
S11305A0238122602383880F991F880F991F880F46
S11305B0991FFC01E05DFD4F83818E7F83837FBFA4
S11305C081E001C080E0DF91CF9108951F920F92E6
S11305D00FB60F9211240BB60F922F933F934F93A4
S11305E05F936F937F938F939F93AF93BF93EF9397
S11305F0FF93CF93DF931F92CDB7DEB780910102B3
S1130600E82FF0E0EE0FFF1FEE0FFF1FEE0FFF1FAE
S1130610E05DFD4F938191FF08C0E0912802F091C5
S1130620290281818F7D818307C0BE016F5F7F4F67
S11306307FDF89818093C6000F90DF91CF91FF9176
S1130640EF91BF91AF919F918F917F916F915F9146
S11306504F913F912F910F900BBE0F900FBE0F90B3
S11306601F9018951F920F920FB60F9211240BB67C
S11306700F922F933F934F935F936F937F938F9337
S11306809F93AF93BF93EF93FF93CF93DF931F9207
S1130690CDB7DEB780910B02E82FF0E0EE0FFF1F1D
S11306A0EE0FFF1FEE0FFF1FE05DFD4F938191FFE3
S11306B008C0E0912A02F0912B0281818F7D818311
S11306C007C0BE016F5F7F4F33DF89818093CE0007
S11306D00F90DF91CF91FF91EF91BF91AF919F91D7
S11306E08F917F916F915F914F913F912F910F90D7
S11306F00BBE0F900FBE0F901F9018951F920F9274
S11307000FB60F9211240BB60F922F933F934F9372
S11307105F936F937F938F939F93AF93BF93EF9365
S1130720FF93CF93DF931F92CDB7DEB7809115026D
S1130730E82FF0E0EE0FFF1FEE0FFF1FEE0FFF1F7D
S1130740E05DFD4F938191FF08C0E0912C02F09190
S11307502D0281818F7D818307C0BE016F5F7F4F32
S1130760E7DE89818093D6000F90DF91CF91FF91CE
S1130770EF91BF91AF919F918F917F916F915F9115
S11307804F913F912F910F900BBE0F900FBE0F9082
S11307901F9018951F920F920FB60F9211240BB64B
S11307A00F922F933F934F935F936F937F938F9306
S11307B09F93AF93BF93EF93FF93CF93DF931F92D6
S11307C0CDB7DEB780911F02E82FF0E0EE0FFF1FD8
S11307D0EE0FFF1FEE0FFF1FE05DFD4F938191FFB2
S11307E008C0E0912E02F0912F0281818F7D8183D8
S11307F007C0BE016F5F7F4F9BDE89818093360106
S11308000F90DF91CF91FF91EF91BF91AF919F91A5
S11308108F917F916F915F914F913F912F910F90A5
S11308200BBE0F900FBE0F901F901895CF93DF93C0
S11308301F921F92CDB7DEB7FC01EE0FFF1F880F8A
S1130840991F880F991F880F991FE80FF91FE0500F
S1130850FE4F8081E82FF0E0EE0FFF1FEE0FFF1F29
S1130860EE0FFF1FE05DFD4F248135811216130644
S11308704CF41A821982BE016F5F7F4F59DE898161
S11308809A8102C08FEF9FEF0F900F90DF91CF916D
S1130890089590E0FC01EE0FFF1FEE0FFF1FEE0F17
S11308A0FF1FE05DFD4F238120FD39C07FB7F89421
S11308B0FC01EE0FFF1FEE0FFF1FEE0FFF1FE05DA9
S11308C0FD4F2081A681B781A20FB11D6C932F5FCC
S11308D0328123232083448155814F5F5F4F5583A9
S11308E04483318123130CC0FC01EE0FFF1FEE0F74
S11308F0FF1FEE0FFF1FE05DFD4F23812160238367
S1130900880F991F880F991F880F991FFC01E05DBC
S1130910FD4F83818D7F83837FBF81E0089580E0D5
S113092008951F920F920FB60F9211240BB60F92D7
S11309302F933F934F935F936F937F938F939F93E3
S1130940AF93BF93EF93FF936091C6008091000231
S1130950A0DFFF91EF91BF91AF919F918F917F9114
S11309606F915F914F913F912F910F900BBE0F901C
S11309700FBE0F901F9018951F920F920FB60F92F3
S113098011240BB60F922F933F934F935F936F9362
S11309907F938F939F93AF93BF93EF93FF93609154
S11309A0CE0080910A0275DFFF91EF91BF91AF9164
S11309B09F918F917F916F915F914F913F912F9173
S11309C00F900BBE0F900FBE0F901F9018951F92A3
S11309D00F920FB60F9211240BB60F922F933F93E1
S11309E04F935F936F937F938F939F93AF93BF9333
S11309F0EF93FF936091D600809114024ADFFF9138
S1130A00EF91BF91AF919F918F917F916F915F9182
S1130A104F913F912F910F900BBE0F900FBE0F90EF
S1130A201F9018951F920F920FB60F9211240BB6B8
S1130A300F922F933F934F935F936F937F938F9373
S1130A409F93AF93BF93EF93FF936091360180918F
S1130A501E021FDFFF91EF91BF91AF919F918F9184
S1130A607F916F915F914F913F912F910F900BBEAA
S1130A700F900FBE0F901F901895E0ECF0E090815E
S1130A8095FFFDCF8093C60008951092C1002FEF0B
S1130A9039EF50E0215030405040E1F700C00000F1
S1130AA02091C600603820E772078105910509F49A
S1130AB08FC024F5603855E275078105910509F466
S1130AC063C074F4603639E073078105910509F455
S1130AD043C0603C72418105910509F449C0CBC013
S1130AE0603428E372078105910509F459C0611542
S1130AF07B448105910509F45FC0BDC0611552ECCA
S1130B00750751E08507910509F486C074F46115F1
S1130B1036E973078105910509F466C06115714EC4
S1130B208105910509F46CC0A6C0603221EA720700
S1130B3027E08207910509F487C0603432E4730723
S1130B403FE08307910509F48BC06039704D834001
S1130B50910509F090C06CC080E493E09093C500C7
S1130B608093C400E0ECF0E080818260808383C0E5
S1130B7080EA91E09093C5008093C400E0ECF0E03B
S1130B8080818260808377C087E690E09093C5007F
S1130B908093C400E0ECF0E080818D7F80836BC0A3
S1130BA08AE890E09093C5008093C400E0ECF0E004
S1130BB08081826080835FC083E390E09093C5006E
S1130BC08093C400E0ECF0E080818D7F808353C08B
S1130BD084E490E09093C5008093C400E0ECF0E0DE
S1130BE080818260808347C089E190E09093C50052
S1130BF08093C400E0ECF0E080818D7F80833BC073
S1130C0082E290E09093C5008093C400E0ECF0E0B1
S1130C108081826080832FC080E190E09093C50042
S1130C208093C400E0ECF0E080818260808323C084
S1130C3087E090E09093C5008093C400E0ECF0E07E
S1130C4080818260808317C083E090E09093C50028
S1130C508093C400E0ECF0E08081826080830BC06C
S1130C6081E090E09093C5008093C400E0ECF0E054
S1130C708081826080834093C200E1ECF0E0808157
S1130C80886180830895CF92DF92EF92FF92CF9391
S1130C90DF936B017C01EA0146E050E060E072EC16
S1130CA081E090E0F2DE9E01B701A60181E090E0D0
S1130CB0F5DB279ADF91CF91FF90EF90DF90CF90F3
S1130CC00895E0910A02F0E0EE0FFF1FEE0FFF1F00
S1130CD0EE0FFF1FE05DFD4F84819581892B89F420
S1130CE085B1805885B92FEF80E792E0215080408C
S1130CF09040E1F700C00000F3CF95B1905895B94A
S1130D00BCDE81E090E092DD8F3F2FEF9207A9F7E0
S1090D100895F894FFCFE2
S1130D160000900340005003400000001003400010
S1130D26D00240000000B002200090022000000023
S1130D367002200050022000C000C800D00030011C
S9030000FC
