:1000000032C1000050C100004EC100004CC10000D0
:100010004AC1000048C1000046C1000044C10000C0
:1000200042C1000040C100003EC100003CC10000D0
:100030003AC1000038C1000036C1000034C10000E0
:1000400032C1000030C100002EC100002CC10000F0
:100050002AC1000028C1000026C1000024C1000000
:1000600022C1000034C60000BAC400001CC1000058
:100070001AC1000018C1000016C1000014C1000020
:1000800012C1000010C100000EC100000CC1000030
:1000900049C60000F0C4000006C1000004C1000011
:1000A00002C1000000C10000FEC00000FCC0000052
:1000B000FAC00000F8C00000F6C00000F4C0000064
:1000C000F2C00000F0C00000EEC0000056C6000004
:1000D0001EC50000E8C000007BC6000064C500002B
:1000E000E2C00000BD01BF01C101CC01CC01CC01C7
:1000F000CC01CC01CC01CC01CC01CC01CC01CC0198
:10010000CC01CC01CC01CC01CC01CC01CC01CC0187
:10011000CC01CC01CC01CC01CC01CC01CC01CC0177
:10012000CC01CC01CC01CC01CC01CC01CC01CC0167
:10013000CC01CC01BB01B901B701C30126022F02DA
:1001400029022F022C022F0232022F0226022F0236
:1001500029022F022C022F0232022F022F022F021D
:100160002F022F022F022F022F022F022F022F0207
:100170002F022F022F022F022F022F0226022F0200
:1001800029022F022C022F0232022F0226022F02F6
:1001900029022F022C022F0232022F0226022F02E6
:1001A00029022F022C022F0232022F0226022F02D6
:1001B00029022F022C022F02320248024502480275
:1001C00045024802450248024502480245024802EB
:1001D00045024802450248024502420245024202E7
:1001E00045024202450242024502420245024202E3
:1001F000450242024502420293029002930290029B
:100200009302900293029002900290029002900258
:10021000900290029002900290029002900290024E
:10022000900290029002900290029002900290023E
:100230009002900290029002930290029302900228
:100240009302900293029002900290029002900218
:100250009002900290029002930290029302900208
:1002600093029002930211241FBECFEFD1E2DEBFB2
:10027000CDBF00E00CBF12E0A0E0B2E0E4EDF2E19F
:1002800000E00BBF02C007900D92A836B107D9F766
:1002900024E0A8E6B2E001C01D92A231B207E1F766
:1002A00042D00C946809ACCE903069F4813041F1B1
:1002B00010F08A9520C09F6F8E6F23D00000000041
:1002C0000000000018C0813058F119F000008A9534
:1002D00014C08F6F9A95000014D0000000000BC06E
:1002E000913070F09A958F6F06C0000000000000FA
:1002F000000000000000000000000000000003C03B
:100300000895000008958A95803079F700009130B3
:10031000B8F39A958F6FF5DF000000000000E8CF7A
:100320009A958F6FEACF6898269A06E010E020E849
:1003300035E240E050E06CE070E08BE090E0ABD064
:1003400046E050E060E875E280E090E07ED7B5D707
:10035000EDD0ECD033D08ED7FCCF0A978C329105FC
:10036000D8F4FC018827EE58FF4F8F4FA9C721E032
:100370000BC022E009C023E007C024E005C025E04F
:1003800003C026E001C020E081E090E002C0880FB9
:10039000991F2A95E2F708958FEF9FEF089580FD4A
:1003A00009C020E030E02F5F3F4F9595879580FF93
:1003B000FACF02C020E030E0C9010895FF920F9308
:1003C0001F93CF93DF93082F80916C0290916D0261
:1003D000E6DFF82E15B8809170029091710264DF0B
:1003E000C0E0D0E010E098010C2E02C035952795B2
:1003F0000A94E2F7217033270F2C02C0220F331F1B
:100400000A94E2F725B980917002909171024CDF55
:100410002196C830D10539F780916C0285B9809159
:1004200070029091710240DFDF91CF911F910F9187
:10043000FF900895E0916A02F0916B02EF33F105AD
:1004400070F48827E256FF4F8F4F3AC785E090E05F
:10045000089586E090E0089587E090E008958FEF9A
:100460009FEF089588E090E00895E0916A02F0918E
:100470006B02B097EF31F10540F48827E352FF4F4C
:100480008F4F1EC781E090E0089580E090E00895CE
:1004900082E090E00895EF92FF920F931F93CF9325
:1004A000DF93EC017B01CA01B9015CD19B01AC0176
:1004B00060E070E080E89FE3BAD020E034E244E7F7
:1004C00059E4DCD11CD17093710260937002C701B2
:1004D00044DF90936D0280936C02CE013EDF9093D7
:1004E0006F0280936E0210936B0200936A02BDDF6D
:1004F0009093690280936802DF91CF911F910F91D1
:10050000FF90EF900895E0916A02F0916B023897A6
:10051000E733F10528F48827E450FF4F8F4FD0C60A
:1005200080E090E0089581E090E00895CF92DF921E
:10053000EF92FF920F931F93CF93DF9380916E0200
:1005400090916F022CDFD82E75DF8C0183B1C1E052
:10055000D0E00D2C02C0CC0FDD1F0A94E2F790E032
:100560008C239D230D2C02C0959587950A94E2F764
:10057000019789F4809170029091710295DE83B1A8
:1005800090E08C239D230D2C02C0959587950A94AD
:10059000E2F7019779F3809170029091710284DE05
:1005A0001016110604F5E12CF12CC12C83B190E05A
:1005B0008C239D230D2C02C0959587950A94E2F714
:1005C0000E2C02C0880F991F0A94E2F7C82A809166
:1005D00070029091710268DE8FEFE81AF80A0E152A
:1005E0001F0521F701C0C12C80916802909169021A
:1005F000892B31F083B1809170029091710254DEA9
:1006000080917002909171024FDE7DDF892B29F07D
:10061000809170029091710247DE8C2DDF91CF9115
:100620001F910F91FF90EF90DF90CF9008950CD025
:10063000EBC0E3D040F0DAD030F021F45F3F19F0A6
:10064000CCC0511115C1CFC0F0D098F39923C9F394
:100650005523B1F3951B550BBB27AA2762177307C8
:10066000840738F09F5F5F4F220F331F441FAA1F7C
:10067000A9F333D00E2E3AF0E0E830D0915050403C
:10068000E695001CCAF729D0FE2F27D0660F771FEA
:10069000881FBB1F261737074807AB07B0E809F0CC
:1006A000BB0B802DBF01FF2793585F4F2AF09E3F61
:1006B000510568F092C0DCC05F3FECF3983EDCF37C
:1006C000869577956795B795F7959F5FC9F7880FDA
:1006D000911D9695879597F90895E1E0660F771F2C
:1006E000881FBB1F621773078407BA0720F0621BBD
:1006F000730B840BBA0BEE1F88F7E095089504D0B6
:100700006894B111B5C0089598D088F09F5790F0C3
:10071000B92F9927B751A0F0D1F0660F771F881F26
:10072000991F1AF0BA95C9F712C0B13081F09FD065
:10073000B1E008959CC0672F782F8827B85F39F003
:10074000B93FCCF3869577956795B395D9F73EF485
:1007500090958095709561957F4F8F4F9F4F08952D
:10076000E89409C097FB3EF490958095709561954B
:100770007F4F8F4F9F4F9923A9F0F92F96E9BB2701
:100780009395F695879577956795B795F111F8CF7D
:10079000FAF4BB0F11F460FF1BC06F5F7F4F8F4FE8
:1007A0009F4F16C0882311F096E911C0772321F0DE
:1007B0009EE8872F762F05C0662371F096E8862F76
:1007C00070E060E02AF09A95660F771F881FDAF7CD
:1007D000880F9695879597F9089597F99F6780E810
:1007E00070E060E008959FEF80EC089500240A9483
:1007F0001616170618060906089500240A941216FC
:100800001306140605060895092E0394000C11F42E
:10081000882352F0BB0F40F4BF2B11F460FF04C0DB
:100820006F5F7F4F8F4F9F4F089557FD9058440F34
:10083000551F59F05F3F71F04795880F97FB991F3F
:1008400061F09F3F79F087950895121613061406FC
:10085000551FF2CF4695F1DF08C016161706180689
:10086000991FF1CF86957105610508940895E89464
:10087000BB2766277727CB0197F908950BD0C4CF04
:10088000B5DF28F0BADF18F0952309F0A6CFABCF7B
:100890001124EECFCADFA0F3959FD1F3950F50E05E
:1008A000551F629FF001729FBB27F00DB11D639F22
:1008B000AA27F00DB11DAA1F649F6627B00DA11DC8
:1008C000661F829F2227B00DA11D621F739FB00D6E
:1008D000A11D621F839FA00D611D221F749F3327DE
:1008E000A00D611D231F849F600D211D822F762F77
:1008F0006A2F11249F5750408AF0E1F088234AF074
:10090000EE0FFF1FBB1F661F771F881F91505040BF
:10091000A9F79E3F510570F060CFAACF5F3FECF37F
:10092000983EDCF3869577956795B795F795E795AB
:100930009F5FC1F7FE2B880F911D9695879597F9BC
:100940000895CF93DF93EB0190E0FC01EE0FFF1FC2
:10095000EE0FFF1FEE0FFF1FEE58FD4F238121FD0D
:100960003AC07FB7F894FC01EE0FFF1FEE0FFF1F98
:10097000EE0FFF1FEE58FD4F2181A681B781A20F18
:10098000B11D3C9138832F5F328123232183448121
:1009900055814150510955834483308123130CC044
:1009A000FC01EE0FFF1FEE0FFF1FEE0FFF1FEE58B3
:1009B000FD4F238122602383880F991F880F991F81
:1009C000880F991FFC01EE58FD4F83818E7F838332
:1009D0007FBF81E001C080E0DF91CF9108951F9239
:1009E0000F920FB60F9211240BB60F922F933F93D5
:1009F0004F935F936F937F938F939F93AF93BF9327
:100A0000EF93FF93CF93DF931F92CDB7DEB7809123
:100A10000102E82FF0E0EE0FFF1FEE0FFF1FEE0FB9
:100A2000FF1FEE58FD4F938191FF08C0E09128020F
:100A3000F091290281818F7D818307C0BE016F5FA4
:100A40007F4F7FDF89818093C6000F90DF91CF9128
:100A5000FF91EF91BF91AF919F918F917F916F9196
:100A60005F914F913F912F910F900BBE0F900FBE52
:100A70000F901F9018951F920F920FB60F9211248E
:100A80000BB60F922F933F934F935F936F937F9388
:100A90008F939F93AF93BF93EF93FF93CF93DF9386
:100AA0001F92CDB7DEB780910B02E82FF0E0EE0F7A
:100AB000FF1FEE0FFF1FEE0FFF1FEE58FD4F93813C
:100AC00091FF08C0E0912A02F0912B0281818F7D75
:100AD000818307C0BE016F5F7F4F33DF89818093C1
:100AE000CE000F90DF91CF91FF91EF91BF91AF9129
:100AF0009F918F917F916F915F914F913F912F9136
:100B00000F900BBE0F900FBE0F901F9018951F9265
:100B10000F920FB60F9211240BB60F922F933F93A3
:100B20004F935F936F937F938F939F93AF93BF93F5
:100B3000EF93FF93CF93DF931F92CDB7DEB78091F2
:100B40001502E82FF0E0EE0FFF1FEE0FFF1FEE0F74
:100B5000FF1FEE58FD4F938191FF08C0E0912C02DA
:100B6000F0912D0281818F7D818307C0BE016F5F6F
:100B70007F4FE7DE89818093D6000F90DF91CF9180
:100B8000FF91EF91BF91AF919F918F917F916F9165
:100B90005F914F913F912F910F900BBE0F900FBE21
:100BA0000F901F9018951F920F920FB60F9211245D
:100BB0000BB60F922F933F934F935F936F937F9357
:100BC0008F939F93AF93BF93EF93FF93CF93DF9355
:100BD0001F92CDB7DEB780911F02E82FF0E0EE0F35
:100BE000FF1FEE0FFF1FEE0FFF1FEE58FD4F93810B
:100BF00091FF08C0E0912E02F0912F0281818F7D3C
:100C0000818307C0BE016F5F7F4F9BDE8981809328
:100C100036010F90DF91CF91FF91EF91BF91AF918E
:100C20009F918F917F916F915F914F913F912F9104
:100C30000F900BBE0F900FBE0F901F90189590E075
:100C4000FC01EE0FFF1FEE0FFF1FEE0FFF1FEE5810
:100C5000FD4F238120FD39C07FB7F894FC01EE0FD2
:100C6000FF1FEE0FFF1FEE0FFF1FEE58FD4F2081FD
:100C7000A681B781A20FB11D6C932F5F3281232310
:100C80002083448155814F5F5F4F55834483318179
:100C900023130CC0FC01EE0FFF1FEE0FFF1FEE0F22
:100CA000FF1FEE58FD4F238121602383880F991F7A
:100CB000880F991F880F991FFC01EE58FD4F838103
:100CC0008D7F83837FBF81E0089580E008951F9228
:100CD0000F920FB60F9211240BB60F922F933F93E2
:100CE0004F935F936F937F938F939F93AF93BF9334
:100CF000EF93FF936091C60080910002A0DFFF9107
:100D0000EF91BF91AF919F918F917F916F915F9183
:100D10004F913F912F910F900BBE0F900FBE0F90F0
:100D20001F9018951F920F920FB60F9211240BB6B9
:100D30000F922F933F934F935F936F937F938F9374
:100D40009F93AF93BF93EF93FF936091CE008091F9
:100D50000A0275DFFF91EF91BF91AF919F918F9143
:100D60007F916F915F914F913F912F910F900BBEAB
:100D70000F900FBE0F901F9018951F920F920FB6F5
:100D80000F9211240BB60F922F933F934F935F93C3
:100D90006F937F938F939F93AF93BF93EF93FF9343
:100DA0006091D600809114024ADFFF91EF91BF91CC
:100DB000AF919F918F917F916F915F914F913F91F3
:100DC0002F910F900BBE0F900FBE0F901F90189594
:100DD0001F920F920FB60F9211240BB60F922F9302
:100DE0003F934F935F936F937F938F939F93AF93B3
:100DF000BF93EF93FF936091360180911E021FDF36
:100E0000FF91EF91BF91AF919F918F917F916F91E2
:100E10005F914F913F912F910F900BBE0F900FBE9E
:100E20000F901F901895E0ECF0E0908195FFFDCFBA
:100E30008093C6000895CF93DF93EC0188818823C7
:100E400029F02196F0DF89918111FCCFDF91CF91BC
:100E500008951092C1002FEF39EF50E0215030403B
:100E60005040E1F700C000002091C600603820E744
:100E700072078105910509F48FC024F5603855E2A9
:100E800075078105910509F463C074F4603639E093
:100E900073078105910509F443C0603C72418105E7
:100EA000910509F449C0CBC0603428E3720781057D
:100EB000910509F459C061157B448105910509F438
:100EC0005FC0BDC0611552EC750751E08507910503
:100ED00009F486C074F4611536E97307810591053C
:100EE00009F466C06115714E8105910509F46CC065
:100EF000A6C0603221EA720727E08207910509F453
:100F000087C0603432E473073FE08307910509F43A
:100F10008BC06039704D8340910509F090C06CC062
:100F200080E493E09093C5008093C400E0ECF0E08F
:100F300080818260808383C080EA91E09093C500C5
:100F40008093C400E0ECF0E080818260808377C011
:100F500087E690E09093C5008093C400E0ECF0E059
:100F600080818D7F80836BC08AE890E09093C5007C
:100F70008093C400E0ECF0E08081826080835FC0F9
:100F800083E390E09093C5008093C400E0ECF0E030
:100F900080818D7F808353C084E490E09093C5006E
:100FA0008093C400E0ECF0E080818260808347C0E1
:100FB00089E190E09093C5008093C400E0ECF0E0FC
:100FC00080818D7F80833BC082E290E09093C5005A
:100FD0008093C400E0ECF0E08081826080832FC0C9
:100FE00080E190E09093C5008093C400E0ECF0E0D5
:100FF00080818260808323C087E090E09093C50069
:101000008093C400E0ECF0E080818260808317C0B0
:1010100083E090E09093C5008093C400E0ECF0E0A2
:101020008081826080830BC081E090E09093C50056
:101030008093C400E0ECF0E0808182608083409384
:10104000C200E1ECF0E08081886180830895109215
:10105000C9002FEF39EF50E0215030405040E1F708
:1010600000C000002091CE00603820E772078105A3
:10107000910509F48FC024F5603855E275078105A4
:10108000910509F463C074F4603639E07307810593
:10109000910509F443C0603C72418105910509F452
:1010A00049C0CBC0603428E372078105910509F47B
:1010B00059C061157B448105910509F45FC0BDC02D
:1010C000611552EC750751E08507910509F486C05A
:1010D00074F4611536E973078105910509F466C05A
:1010E0006115714E8105910509F46CC0A6C060328E
:1010F00021EA720727E08207910509F487C060346E
:1011000032E473073FE08307910509F48BC060392F
:10111000704D8340910509F090C06CC080E493E06D
:101120009093CD008093CC00E8ECF0E08081826069
:10113000808383C080EA91E09093CD008093CC00BF
:10114000E8ECF0E080818260808377C087E690E001
:101150009093CD008093CC00E8ECF0E080818D7F0F
:1011600080836BC08AE890E09093CD008093CC00A0
:10117000E8ECF0E08081826080835FC083E390E0F0
:101180009093CD008093CC00E8ECF0E080818D7FDF
:10119000808353C084E490E09093CD008093CC0092
:1011A000E8ECF0E080818260808347C089E190E0D4
:1011B0009093CD008093CC00E8ECF0E080818D7FAF
:1011C00080833BC082E290E09093CD008093CC007E
:1011D000E8ECF0E08081826080832FC080E190E0C5
:1011E0009093CD008093CC00E8ECF0E080818260A9
:1011F000808323C087E090E09093CD008093CC0063
:10120000E8ECF0E080818260808317C083E090E0AA
:101210009093CD008093CC00E8ECF0E08081826078
:1012200080830BC081E090E09093CD008093CC0050
:10123000E8ECF0E08081826080834093CA00E9ECB2
:10124000F0E08081886180830895CF92DF92EF92F1
:10125000FF92CF93DF936B017C01EA01FADDAE01CF
:10126000C701B601F4DEDF91CF91FF90EF90DF90E0
:10127000CF900895CF93E8ECF0E080818823ECF7DD
:10128000C091C8008091CE009091C600CCDD8C2F1B
:101290008C7189F0C4FF03C088E392E0CCDDC3FF0A
:1012A00003C088E492E0C7DDC2FF03C088E592E096
:1012B000C2DD8AE0B8DDCF910895279A2F9808956E
:1012C000EE0FFF1F881F8BBF0790F691E02D19943A
:0412D000F894FFCFC0
:1012D4000000D2034000920340000000520340008B
:1012E400120340000000F2022000D202200000009D
:1012F400B202200092022000C000C800D0003001D9
:1013040064617461203D2000206672616D696E67BE
:10131400206572726F722000206F76657272756E2E
:10132400206572726F722000207061726974792076
:081334006572726F7220000067
:00000001FF
